:020000040800F2
:1000000000500020090700084106000843060008C8
:1000100045060008470600084906000800000000E1
:100020000000000000000000000000004B06000877
:100030004D060008000000004F06000851060008A9
:100040005107000851070008510700085107000830
:100050005107000851070008510700085107000820
:100060005107000851070008510700085107000810
:100070005107000851070008510700085107000800
:1000800051070008510700085107000851070008F0
:1000900051070008510700085107000851070008E0
:1000A00051070008510700085107000851070008D0
:1000B00051070008510700085107000851070008C0
:1000C00051070008510700085107000851070008B0
:1000D00051070008510700085107000851070008A0
:1000E00051070008510700085107000800000000F0
:1000F0000000000000000000000000000000000000
:0C01000000000000000000005FF808F1A3
:10010C0010B5054C237833B9044B13B10448AFF345
:10011C0000800123237010BD3C040020000000006F
:10012C00501A000808B5034B1BB103490348AFF341
:10013C00008008BD0000000040040020501A000898
:10014C0084B0134B9A6942F010029A619A6902F0DA
:10015C0010020092009A9A6942F020029A619A6900
:10016C0002F020020192019A9A6942F004029A610B
:10017C009A6902F004020292029A9A6942F0080209
:10018C009A619B6903F008030393039B04B07047C7
:10019C000010024008B50B480B4B03600B4B43603F
:1001AC0000238360C3604FF480420261436183612A
:1001BC00C361036200F028FE00B908BD00F03AF8F4
:1001CC00FBE700BF5804002000540040801A0600D2
:1001DC0010B586B000230293039304930593026831
:1001EC00114B9A4201D006B010BD104CA36943F0DC
:1001FC000803A361A36903F008030093009BC023C9
:10020C000293122303930323059302A9084800F0D9
:10021C0057FBE36943F40013E361E36903F4001350
:10022C000193019BDFE700BF005400400010024027
:10023C00000C014072B6FEE700B591B028220021F7
:10024C0006A801F03DFB0023019302930393049352
:10025C000593012206924FF4803307930A920222EF
:10026C000D920E934FF4E0130F9306A800F07CFF51
:10027C0080B90F23019302210291002303934FF4C1
:10028C0080620492059301A801F0A0F920B911B085
:10029C005DF804FBFFF7CEFFFFF7CCFF10B582B083
:1002AC0000F078FAFFF7C8FFFFF74AFFFFF772FF7D
:1002BC0000F0CEF900F092F827E000F0D9F8E1B2A6
:1002CC0001F11E030A3100220092DBB23222C9B2C4
:1002DC00142000F069F9164800F0D4F80A2000F058
:1002EC007DFA0134132CE8DD00F0C2F800230093F2
:1002FC0032231A461E21142000F056F90C4800F047
:10030C00C1F84FF47A7000F069FA00F0B1F80024EB
:10031C0000941E2332220A21142000F045F90448CF
:10032C0000F0B0F84FF47A7000F058FADAE700BF3A
:10033C00AC04002000B585B00023ADF80C308DF86E
:10034C000D004FF0FF330093022303AA78210348DA
:10035C0000F038FE05B05DF804FB00BF5804002027
:10036C0000B585B00023ADF80C3040238DF80C306F
:10037C008DF80D004FF0FF330093022303AA782170
:10038C00024800F01FFE05B05DF804FB5804002085
:10039C0010B50C4640F0B000FFF7CCFF200940F040
:1003AC001000FFF7C7FF04F00F00FFF7C3FF10BDED
:1003BC0038B5002509E00020FFF7D2FF0134E4B284
:1003CC0014F0800FF7D00135EDB2072D05D80021C0
:1003DC002846FFF7DDFF0024F2E738BD08B5AE2054
:1003EC00FFF7A8FFD520FFF7A5FF8020FFF7A2FF9E
:1003FC00A820FFF79FFF3F20FFF79CFFD320FFF7BC
:10040C0099FF0020FFF796FF4020FFF793FFA120F4
:10041C00FFF790FFC820FFF78DFFDA20FFF78AFF68
:10042C001220FFF787FF8120FFF784FFCF20FFF713
:10043C0081FFD920FFF77EFFF120FFF77BFFDB2048
:10044C00FFF778FF3020FFF775FFA420FFF772FF4E
:10045C00A620FFF76FFF8D20FFF76CFF1420FFF72E
:10046C0069FFAF20FFF766FFFFF7A2FF08BD000092
:10047C0008B54FF480620021014801F021FA08BD53
:10048C00AC04002030B5A5B0054640238DF80C30E7
:10049C0000241FE005EBC412591CD25C91336B4451
:1004AC0003F8842C0B467F2BF4DDA4F15000C0B272
:1004BC00FFF740FF0220FFF73DFF1020FFF73AFF48
:1004CC004FF0FF330093812303AA7821044800F0F6
:1004DC0079FD0134072C01DC0023E4E725B030BDA5
:1004EC005804002010F0800F0DD13F290BD84FEA93
:1004FC00D10C01F0070101228A40034B03EBCC1312
:10050C00195C114319547047AC0400202DE9F04FCD
:10051C0083B08046A2EB000A8946A3EB010BBAF12B
:10052C00000F0DDD01220092BBF1000F14DD012341
:10053C000193DA451CDD544600273E463D461AE041
:10054C00BAF1000F05D0A0EB020A4FF0FF32009277
:10055C00EAE7CDF800A0E7E7BBF1000F05D0A1EB6F
:10056C00030B4FF0FF330193E3E7CDF804B0E0E762
:10057C005C46E1E70137631CBB4212DB5FFA89F191
:10058C005FFA88F0FFF7AEFF55445E44AC4202DAE6
:10059C002D1B009B9844B442ECDA361B019B99440A
:1005AC00E8E703B0BDE8F08F2DE9F04182B09DF88B
:1005BC002080904205D205460E4614461F469942AD
:1005CC0002D302B0BDE8F081CDF800800B46FFF7F6
:1005DC009DFFCDF800803B46224639462846FFF762
:1005EC0095FFCDF800803B462A4631462846FFF75A
:1005FC008DFFCDF800803B46224631462046FFF762
:10060C0085FFDEE782B00A4B9A6942F001029A61DB
:10061C009A6902F001020092009ADA6942F0805263
:10062C00DA61DB6903F080530193019B02B07047E0
:10063C0000100240FEE7FEE7FEE7FEE7FEE770472C
:10064C007047704708B500F0B7F808BD7047000058
:10065C0008B50A480A4B03604FF4E13343600023AA
:10066C008360C36003610C2242618361C36101F04A
:10067C00D3F800B908BDFFF7DDFDFBE7AC0800209F
:10068C000038014010B586B0002302930393049305
:10069C0005930268174B9A4201D006B010BD03F5C2
:1006AC0058439A6942F480429A619A6902F48042F2
:1006BC000092009A9A6942F004029A619B6903F0D5
:1006CC0004030193019B4FF40073029302230393E1
:1006DC0003230593084C02A9204600F0F1F84FF4CF
:1006EC008063029300230393049302A9204600F035
:1006FC00E7F8D2E70038014000080140FFF7A6FFF9
:10070C000B480C490C4A002302E0D458C450043363
:10071C00C4188C42F9D3094A094C002301E0136038
:10072C000432A242FBD301F0A7F8FFF7B7FD7047E4
:10073C00000000203C040020A41A00083C04002007
:10074C00FC080020FEE7000010B504460E4B18789C
:10075C004FF47A73B3FBF0F30C4A1068B0FBF3F070
:10076C0000F09AF868B90F2C01D901200AE0002298
:10077C0021464FF0FF3000F057F8054B1C6000206D
:10078C0000E0012010BD00BF04000020000000208C
:10079C000800002008B5074A136843F010031360E3
:1007AC00032000F02FF80F20FFF7CEFFFFF72AFFF2
:1007BC00002008BD00200240034A1168034B1B783F
:1007CC000B441360704700BFF408002004000020A5
:1007DC00014B1868704700BFF408002038B5044678
:1007EC00FFF7F6FF0546B4F1FF3F02D0044B1B7830
:1007FC001C44FFF7EDFF401BA042FAD338BD00BFED
:10080C0004000020074AD36823F4E0631B041B0C8C
:10081C00000200F4E060034343F0BF6343F4003391
:10082C00D360704700ED00E000B5194BDB68C3F3F3
:10083C000223C3F1070CBCF1040F28BF4FF0040CCA
:10084C0003F1040EBEF1060F18D9033B4FF0FF3E27
:10085C000EFA0CFC21EA0C0199400EFA03F322EA81
:10086C000303194300280BDB0901C9B200F16040F6
:10087C0000F5614080F800135DF804FB0023E5E708
:10088C0000F00F000901C9B2024B1954F4E700BF84
:10089C0000ED00E014ED00E00138B0F1807F0BD2E8
:1008AC004FF0E0235861054AF02182F82310002014
:1008BC00986107221A6170470120704700ED00E033
:1008CC0070B582B00024A446A6E0804DAA4210D098
:1008DC0007D97F4DAA420CD005F58035AA4208D025
:1008EC0013E0A5F58015AA4203D005F57025AA42A0
:1008FC0007D18A68002A58D0012A51D043610824B4
:10090C0003E0A5F58015AA42F3D0BEF1FF0F4ED837
:10091C000646BEF1FF0F4CD84FEA8C0233680F2508
:10092C00954023EA050304FA02F2134333604B6843
:10093C0013F0805F6ED0674B9A6942F001029A61A6
:10094C009B6903F001030193019B4FEA9C02951CE8
:10095C00614B53F825600CF003039D000F23AB4053
:10096C0026EA03065D4B984229D003F58063984232
:10097C0000F08E8003F58063984200F08B8003F5C5
:10098C008063984219D004231AE0CC68BDE7CC6888
:10099C000434BAE7CC680834B7E7CC680C34B4E755
:1009AC0003610824B1E70024AFE70424ADE7061D7A
:1009BC00AFE7ACF108029200B0E7032300E000239C
:1009CC00AB4033430232444D45F822304B6813F4AC
:1009DC00801F61D0424A936843EA0E0393604B68D0
:1009EC0013F4001F5ED03E4AD36843EA0E03D36073
:1009FC004B6813F4003F5BD0394A536843EA0E034B
:100A0C0053604B6813F4803F58D0354A136843EA5F
:100A1C000E0313600CF1010C0A6832FA0CF353D07C
:100A2C00012303FA0CF302EA030E33EA0202F1D1BA
:100A3C004A68122A3FF649AF122A3FF666AF01A563
:100A4C0055F822F0FF08000897090008A1090008D2
:100A5C00B30900081709000817090008170900084E
:100A6C0017090008170900081709000817090008DA
:100A7C0017090008170900081709000817090008CA
:100A8C0017090008170900089B090008A7090008A6
:100A9C00012395E7022393E7114A936823EA0E0397
:100AAC0093609CE70E4AD36823EA0E03D3609FE75A
:100ABC000B4A536823EA0E035360A2E7084A1368F3
:100ACC0023EA0E031360A5E702B070BD00002210EC
:100ADC0000003110001002400000014000080140ED
:100AEC000004014003685A6912F4806F01D10020A0
:100AFC0070476FF480625A6100230363202280F8F0
:100B0C003D2080F83E30026C42F00402026480F812
:100B1C003C30012070472DE9F04106460C46174643
:100B2C0098463BE0FFF754FE069BC01A404502D89E
:100B3C00B8F1000F32D1012D18D033689B6924EA2B
:100B4C0003039BB2B3FA83F35B099F4226D10023C4
:100B5C003363202286F83D2086F83E30326C42F01A
:100B6C002002326486F83C30012027E033685B6950
:100B7C0024EA03039BB2B3FA83F35B09E5E733681A
:100B8C005B6924EA030C1FFA8CFCBCFA8CFC4FEA60
:100B9C005C1C674511D1B8F1FF3FC3D1C4F30745C5
:100BAC00012DECD033689B6924EA030C1FFA8CFCF2
:100BBC00BCFA8CFC4FEA5C1CEBE70020BDE8F08132
:100BCC002DE9F84305460E469046994653E01A68BF
:100BDC0042F400721A602B686FF480625A61002331
:100BEC002B63202285F83D2085F83E302A6C42F09C
:100BFC0004022A6485F83C3001204AE0FFF7E8FD46
:100C0C00A0EB0900404502D8B8F1000F33D1012FF9
:100C1C0017D02B689B6926EA03039BB2003B18BFD5
:100C2C00012343B300232B63202285F83D2085F854
:100C3C003E302A6C42F020022A6485F83C300120B8
:100C4C0027E02B685B6926EA03039BB2003B18BFC5
:100C5C000123E6E72B689C6926EA0404A4B2003C55
:100C6C0018BF0124A4B12B685A6912F4806FAED15D
:100C7C00B8F1FF3FC2D1C6F30747012FEAD12B6869
:100C8C005C6926EA0404A4B2003C18BF0124E9E71D
:100C9C000020BDE8F8830000F0B583B004460D4693
:100CAC0016461F46C36A082B0DD0012B0BD013F52B
:100CBC00803F08D0036B122B0AD10268136843F4EF
:100CCC008073136004E02268136843F4807313602C
:100CDC000097334600224FF001112046FFF71BFF0F
:100CEC0080B92369B3F5804F16D1236805F0FE0552
:100CFC001D613B46324613492046FFF761FFF8B9A8
:100D0C0003B0F0BD23681B6813F4807F02D04FF44E
:100D1C00007323640320F3E7EB11226803F006034E
:100D2C0043F0F00313613B46324607492046FFF778
:100D3C0047FF18B92368EDB21D61DAE70120DFE740
:100D4C000120DDE7020001000800010070B5044637
:100D5C000D46164623685B6913F0800F21D120469F
:100D6C00FFF7C0FEF8B9B5F1FF3FF3D0FFF730FD48
:100D7C00801BA84201D8002DECD123685B6913F0CD
:100D8C00800FE7D100232363202284F83D2084F8D0
:100D9C003E30226C42F02002226484F83C30012068
:100DAC0000E0002070BD0120FCE770B504460D4644
:100DBC00164623685B6913F0040F21D12046FFF718
:100DCC0091FEF8B9B5F1FF3FF3D0FFF701FD801BA1
:100DDC00A84201D8002DECD123685B6913F0040FF5
:100DEC00E7D100232363202284F83D2084F83E3091
:100DFC00226C42F02002226484F83C30012000E096
:100E0C00002070BD0120FCE7002800F0CC8070B5FC
:100E1C00044690F83D30002B77D0242384F83D30E5
:100E2C002268136823F0010313602268136843F4EB
:100E3C00004313602268136823F40043136000F02E
:100E4C0081FC62685A4B9A4264D85A4B98428CBFC8
:100E5C0000230123002B40F0A8805749A1FB00314F
:100E6C008B0C25686A6822F03F0242EA91426A6064
:100E7C0021680A6A22F03F0266684D4DAE424FD897
:100E8C00013313430B622168CA6922F44F4222F0EA
:100E9C00FF026668464B9E424CD8431E7600B3FB5D
:100EAC00F6F3013340F6FC70034278D0C3F30B0326
:100EBC001343CB6121680B6823F0C003E269206AFD
:100ECC00024313430B6021688B6823F4034323F024
:100EDC00FF032269E068024313438B602168CB68EF
:100EEC0023F0FF036269A06902431343CB602268BD
:100EFC00136843F00103136000202064202384F85E
:100F0C003D30206384F83E0070BD80F83C30FFF724
:100F1C005FF982E7294B98428CBF0023012399E7A4
:100F2C004FF4967505FB03F3254DA5FB03539B0965
:100F3C000133A6E7A368BBB9451E06EB460CB5FB0F
:100F4C00FCF50135C5F30B05B5FA85F56D0945BB07
:100F5C00C3B9013806EB4603B0FBF3F30133C3F31B
:100F6C000B0343F40043A3E7451E06EB860C0CEB86
:100F7C008C0CB5FBFCF50135C5F30B05B5FA85F505
:100F8C006D09E4E7013806EB860303EB8303B0FB42
:100F9C00F3F30133C3F30B0343F4404388E7042317
:100FAC0086E7012384E7012070470120ACE700BFEE
:100FBC00A08601007F841E0083DE1B43FF083D00DA
:100FCC00D34D62102DE9F04385B004460F4691468F
:100FDC0098460C9EFFF7FCFB054694F83D00C0B20A
:100FEC00202804D00227384605B0BDE8F0830095D0
:100FFC00192301224F492046FFF78DFD002840F0B0
:10100C00928094F83C30012B00F08F80012384F8FF
:10101C003C3023681A6812F0010F03D11A6842F0B1
:10102C0001021A602268136823F400631360212301
:10103C0084F83D30102384F83E3000232364C4F838
:10104C002490A4F82A80638D23853B4BE3622B46C6
:10105C00324639462046FFF71FFE0746002866D168
:10106C000023039323685A6903929B690393039BA0
:10107C0011E0236C042B01D00127B4E7226813681C
:10108C0043F400731360F7E72A4631462046FFF716
:10109C008CFE00282ED1238D002B36D02A463146CB
:1010AC002046FFF753FE0028E3D1626A23681278CA
:1010BC001A61606A431C6362618D89B2013989B21D
:1010CC006185238D013B9BB223852268516911F008
:1010DC00040FD9D0002BD7D043781361636A013346
:1010EC006362638D9BB2013B9BB26385238D013B95
:1010FC002385C9E7236C042B01D0012773E72268F1
:10110C00136843F400731360F7E72268136843F421
:10111C0000731360202384F83D30002384F83E30A4
:10112C0084F83C305FE702275DE702275BE7012785
:10113C0059E700BF020010000000FFFF82B0084B0F
:10114C001B68084AA2FB03235B0A00FB03F3019311
:10115C0000BF019B5A1E0192002BF9D102B07047BF
:10116C0000000020D34D6210002800F0F18170B512
:10117C0082B00446036813F0010F2CD0994B5B68C6
:10118C0003F00C03042B1DD0964B5B6803F00C038F
:10119C00082B12D06368B3F5803F41D0002B55D19A
:1011AC0003F1804303F504331A6822F480321A6089
:1011BC001A6822F480221A6037E08A4B5B6813F4B9
:1011CC00803FE7D0874B1B6813F4003F03D0636864
:1011DC00002B00F0BF81236813F0020F75D0814BF8
:1011EC005B6813F00C0F5FD07E4B5B6803F00C0355
:1011FC00082B54D02369002B00F08A807A4B0122F3
:10120C001A60FFF7E5FA0546764B1B6813F0020FE0
:10121C0075D1FFF7DDFA401B0228F5D903209EE1BA
:10122C00704A136843F480331360636843B3FFF769
:10123C00CFFA05466B4B1B6813F4003FCBD1FFF77D
:10124C00C7FA401B6428F5D9032088E1B3F5A02F19
:10125C0009D0644B1A6822F480321A601A6822F49E
:10126C0080221A60E1E703F18043A3F53C331A684E
:10127C0042F480221A601A6842F480321A60D4E771
:10128C00FFF7A6FA0546574B1B6813F4003FA2D094
:10129C00FFF79EFA401B6428F5D903205FE1514B00
:1012AC005B6813F4803FA5D14E4B1B6813F0020F03
:1012BC0003D02369012B40F04F814A4A136823F075
:1012CC00F803616943EAC1031360236813F0080F44
:1012DC0033D0A369002B5CD0434B0122C3F880248C
:1012EC00FFF776FA05463F4B5B6A13F0020F21D1EC
:1012FC00FFF76EFA401B0228F5D903202FE1394A7B
:10130C00136823F0F803616943EAC1031360DCE757
:10131C00354B00221A60FFF75BFA0546314B1B6810
:10132C0013F0020FD1D0FFF753FA401B0228F5D966
:10133C00032014E10120FFF701FF236813F0040FD1
:10134C0000F09680274BDB6913F0805F34D1254B7E
:10135C00DA6942F08052DA61DB6903F08053019361
:10136C00019B0125214B1B6813F4807F26D0E36879
:10137C00012B3DD0002B53D103F1804303F50433F3
:10138C001A6A22F001021A621A6A22F004021A6224
:10139C0033E0154B0022C3F88024FFF719FA0546F9
:1013AC00104B5B6A13F0020FC7D0FFF711FA401B0A
:1013BC000228F5D90320D2E00025D3E70B4A1368A5
:1013CC0043F480731360FFF703FA0646074B1B6860
:1013DC0013F4807FCBD1FFF7FBF9801B6428F5D980
:1013EC000320BCE0001002400000424200700040AC
:1013FC005F4A136A43F001031362E36833B3FFF7E8
:10140C00E7F906465A4B1B6A13F0020F2FD1FFF770
:10141C00DFF9801B41F288339842F3D903209EE018
:10142C00052B09D0524B1A6A22F001021A621A6A71
:10143C0022F004021A62E0E74D4B1A6A42F00402F1
:10144C001A621A6A42F001021A62D6E7FFF7C0F973
:10145C000646474B1B6A13F0020F08D0FFF7B8F98A
:10146C00801B41F288339842F3D9032077E0E5B929
:10147C00E369002B72D03E4A526802F00C02082A33
:10148C0056D0022B17D03B4B00221A66FFF7A0F95F
:10149C000446374B1B6813F0007F47D0FFF798F9D1
:1014AC00001B0228F5D9032059E0314AD36923F0F7
:1014BC008053D361DCE72F4B00221A66FFF788F9C3
:1014CC0005462B4B1B6813F0007F06D0FFF780F905
:1014DC00401B0228F5D9032041E0236AB3F5803F75
:1014EC001AD023494B6823F47413226A606A0243AE
:1014FC0013434B601F4B01221A66FFF769F9044630
:10150C001B4B1B6813F0007F0ED1FFF761F9001B1A
:10151C000228F5D9032022E0154A536823F400333E
:10152C00A1680B435360DCE7002018E0002016E0B4
:10153C00012B16D00E4B5B6803F48031226A91426A
:10154C0011D103F47013626A93420ED1002006E0AD
:10155C0001207047012002E0012000E0002002B0D1
:10156C0070BD0120FBE70120F9E70120F7E700BF80
:10157C0000100240000042420F4B5B6803F00C026B
:10158C00082A01D00D487047C3F383420C49885C8C
:10159C0013F4803F0BD0084B5B68C3F34043094AFC
:1015AC00D35C064A02FB00F0B0FBF3F07047064B2D
:1015BC0003FB00F0704700BF0010024000127A00DD
:1015CC00801A0008901A000800093D00002800F05D
:1015DC00A08070B50D460446524B1B6803F0070300
:1015EC008B420BD24F4A136823F007030B43136053
:1015FC00136803F007038B4240F08D80236813F0CF
:10160C00020F17D013F0040F04D0474A536843F469
:10161C00E0635360236813F0080F04D0424A536808
:10162C0043F460535360404A536823F0F003A168BD
:10163C000B435360236813F0010F31D06368012B07
:10164C0020D0022B25D0384A126812F0020F64D039
:10165C0035494A6822F0030213434B60FFF7B8F890
:10166C000646314B5B6803F00C036268B3EB820FE8
:10167C0016D0FFF7ADF8801B41F288339842F0D9B1
:10168C00032045E0284A126812F4003FE0D1012003
:10169C003EE0254A126812F0007FD9D1012037E0D4
:1016AC00204B1B6803F00703AB420AD91D4A136891
:1016BC0023F007032B431360136803F00703AB42BB
:1016CC002DD1236813F0040F06D0174A536823F466
:1016DC00E063E1680B435360236813F0080F07D0F5
:1016EC00114A536823F46053216943EAC1035360E0
:1016FC00FFF742FF0C4B5B68C3F303130B4AD35C3D
:10170C00D8400B4B18600B4B1868FFF71DF80020E6
:10171C0070BD012070470120FAE70120F8E7012095
:10172C00F6E700BF0020024000100240681A0008D3
:10173C000000002008000020014B1868704700BF13
:10174C000000002008B5FFF7F7FF044B5B68C3F3FC
:10175C000223034AD35CD84008BD00BF00100240EE
:10176C00781A000808B5FFF7E7FF044B5B68C3F372
:10177C00C223034AD35CD84008BD00BF001002400E
:10178C00781A000810B504460268136923F4405314
:10179C00C1680B43136183680269134342691A439E
:1017AC000168CB6823F4B05323F00C031343CB60D4
:1017BC000268536923F4407381690B4353610268D7
:1017CC00134B9A4220D0FFF7BDFF024602EB820278
:1017DC0002EB820263689B00B2FBF3F20D48A0FBA4
:1017EC0002314909642303FB11231B013233A0FB93
:1017FC0003235B0903F0F00202EB011203F00F0369
:10180C00216813448B6010BDFFF7ACFF0246DDE787
:10181C00003801401F85EB5160B310B5044690F8B9
:10182C00413013B3242384F841302268D36823F465
:10183C000053D3602046FFF7A5FF2268136923F4F9
:10184C00904313612268536923F02A035361226881
:10185C00D36843F40053D36000206064202384F8E1
:10186C00413084F84230606310BD80F84030FEF7A0
:10187C0009FFD7E70120704770B50D4E0D4D761B53
:10188C00B61006D0002455F8043B01349847A64204
:10189C00F9D1094E094D00F0D5F8761BB61006D0DB
:1018AC00002455F8043B01349847A642F9D170BD89
:1018BC00981A0008981A0008A01A0008981A00082C
:1018CC00830730B548D0541E002A3FD00346CAB215
:1018DC0001E0013C3AD303F8012B9D07F9D1032C0D
:1018EC002DD9CDB245EA05250F2C45EA054536D94B
:1018FC00A4F1100222F00F0C03F1200EE6444FEA83
:10190C00121C03F1100242E9045542E9025510324F
:10191C007245F8D10CF1010214F00C0F03EB02121A
:10192C0004F00F0C13D0ACF1040323F003030433C5
:10193C00134442F8045B9342FBD10CF003042CB12A
:10194C00CAB21C4403F8012B9C42FBD130BD644647
:10195C001346002CF4D1F9E703461446BFE71A46A8
:10196C00A446E0E7024B13B1024800F005B87047FB
:10197C000000000091190008002301461A46184681
:10198C0000F01AB838B5084B084D5B1B9C1007D0FB
:10199C00043B1D44013C55F804399847002CF9D1FF
:1019AC00BDE8384000F054B8A41A0008A01A00088A
:1019BC00704700BF704700BF2DE9F047DFF87CA0EF
:1019CC000646DAF8000098460F469146FFF7F0FFFE
:1019DC001B4B1B68D3F8484124B365681F2D26DCCC
:1019EC005EB96B1C0235DAF80000636044F82570B0
:1019FC00FFF7E0FF0020BDE8F087012304EB850131
:101A0C00C1F88890D4F88821AB401A43022EC4F850
:101A1C008821C1F80881E4D1D4F88C211343C4F88F
:101A2C008C31DEE703F5A674C3F84841D5E7DAF844
:101A3C000000FFF7BFFF4FF0FF30DCE73804002059
:101A4C00941A0008F8B500BFF8BC08BC9E46704755
:0C1A5C00F8B500BFF8BC08BC9E467047FF
:101A68000000000000000000010203040607080946
:101A78000000000001020304020304050607080928
:101A88000A0B0C0D0E0F10100102000010000020B0
:081A980071190008310100087A
:041AA0000D0100082C
:101AA4000024F40001000000100000000000000009
:101AB40000000000FC02002064030020CC0300208E
:101AC4000000000000000000000000000000000012
:101AD4000000000000000000000000000000000002
:101AE40000000000000000000000000000000000F2
:101AF40000000000000000000000000000000000E2
:101B040000000000000000000000000000000000D1
:101B140000000000000000000000000000000000C1
:101B240000000000000000000000000000000000B1
:101B340000000000000000000000000000000000A1
:101B44000000000000000000000000000000000091
:101B54000000000000000000010000000000000080
:101B64000E33CDAB34126DE6ECDE05000B00000045
:101B74000000000000000000000000000000000061
:101B84000000000000000000000000000000000051
:101B94000000000000000000000000000000000041
:101BA4000000000000000000000000000000000031
:0C1ED4000000000000000000F8080020E2
:0400000508000709DF
:00000001FF
